{
  "_format": "hh-sol-artifact-1",
  "contractName": "ZombieHelper",
  "sourceName": "contracts/zombiehelper.sol",
  "abi": [
    {
      "constant": true,
      "inputs": [
        {
          "name": "",
          "type": "address"
        }
      ],
      "name": "ownerZombieCount",
      "outputs": [
        {
          "name": "",
          "type": "uint256"
        }
      ],
      "payable": false,
      "stateMutability": "view",
      "type": "function"
    },
    {
      "constant": false,
      "inputs": [
        {
          "name": "_zombieId",
          "type": "uint256"
        }
      ],
      "name": "levelUp",
      "outputs": [],
      "payable": true,
      "stateMutability": "payable",
      "type": "function"
    },
    {
      "constant": false,
      "inputs": [
        {
          "name": "_zombieId",
          "type": "uint256"
        },
        {
          "name": "_kittyId",
          "type": "uint256"
        }
      ],
      "name": "feedOnKitty",
      "outputs": [],
      "payable": false,
      "stateMutability": "nonpayable",
      "type": "function"
    },
    {
      "constant": true,
      "inputs": [
        {
          "name": "",
          "type": "uint256"
        }
      ],
      "name": "zombies",
      "outputs": [
        {
          "name": "name",
          "type": "string"
        },
        {
          "name": "dna",
          "type": "uint256"
        },
        {
          "name": "level",
          "type": "uint32"
        },
        {
          "name": "readyTime",
          "type": "uint32"
        },
        {
          "name": "winCount",
          "type": "uint16"
        },
        {
          "name": "lossCount",
          "type": "uint16"
        }
      ],
      "payable": false,
      "stateMutability": "view",
      "type": "function"
    },
    {
      "constant": false,
      "inputs": [],
      "name": "withdraw",
      "outputs": [],
      "payable": true,
      "stateMutability": "payable",
      "type": "function"
    },
    {
      "constant": true,
      "inputs": [
        {
          "name": "_zombieId",
          "type": "uint256"
        }
      ],
      "name": "getDna",
      "outputs": [
        {
          "name": "",
          "type": "uint256"
        }
      ],
      "payable": false,
      "stateMutability": "view",
      "type": "function"
    },
    {
      "constant": true,
      "inputs": [
        {
          "name": "_owner",
          "type": "address"
        }
      ],
      "name": "getZombiesByOwner",
      "outputs": [
        {
          "name": "",
          "type": "uint256[]"
        }
      ],
      "payable": false,
      "stateMutability": "view",
      "type": "function"
    },
    {
      "constant": true,
      "inputs": [
        {
          "name": "",
          "type": "uint256"
        }
      ],
      "name": "zombieToOwner",
      "outputs": [
        {
          "name": "",
          "type": "address"
        }
      ],
      "payable": false,
      "stateMutability": "view",
      "type": "function"
    },
    {
      "constant": false,
      "inputs": [
        {
          "name": "_address",
          "type": "address"
        }
      ],
      "name": "setKittyContractAddress",
      "outputs": [],
      "payable": false,
      "stateMutability": "nonpayable",
      "type": "function"
    },
    {
      "constant": false,
      "inputs": [
        {
          "name": "_zombieId",
          "type": "uint256"
        },
        {
          "name": "_newDna",
          "type": "uint256"
        }
      ],
      "name": "changeDna",
      "outputs": [],
      "payable": false,
      "stateMutability": "nonpayable",
      "type": "function"
    },
    {
      "constant": true,
      "inputs": [
        {
          "name": "_zombieId",
          "type": "uint256"
        }
      ],
      "name": "getName",
      "outputs": [
        {
          "name": "",
          "type": "string"
        }
      ],
      "payable": false,
      "stateMutability": "view",
      "type": "function"
    },
    {
      "constant": false,
      "inputs": [],
      "name": "renounceOwnership",
      "outputs": [],
      "payable": false,
      "stateMutability": "nonpayable",
      "type": "function"
    },
    {
      "constant": false,
      "inputs": [
        {
          "name": "_name",
          "type": "string"
        }
      ],
      "name": "createRandomZombie",
      "outputs": [],
      "payable": false,
      "stateMutability": "nonpayable",
      "type": "function"
    },
    {
      "constant": true,
      "inputs": [
        {
          "name": "_zombieId",
          "type": "uint256"
        }
      ],
      "name": "getLevel",
      "outputs": [
        {
          "name": "",
          "type": "uint256"
        }
      ],
      "payable": false,
      "stateMutability": "view",
      "type": "function"
    },
    {
      "constant": true,
      "inputs": [],
      "name": "owner",
      "outputs": [
        {
          "name": "",
          "type": "address"
        }
      ],
      "payable": false,
      "stateMutability": "view",
      "type": "function"
    },
    {
      "constant": true,
      "inputs": [],
      "name": "isOwner",
      "outputs": [
        {
          "name": "",
          "type": "bool"
        }
      ],
      "payable": false,
      "stateMutability": "view",
      "type": "function"
    },
    {
      "constant": true,
      "inputs": [],
      "name": "zombiesCount",
      "outputs": [
        {
          "name": "",
          "type": "uint256"
        }
      ],
      "payable": false,
      "stateMutability": "view",
      "type": "function"
    },
    {
      "constant": false,
      "inputs": [
        {
          "name": "_zombieId",
          "type": "uint256"
        },
        {
          "name": "_newName",
          "type": "string"
        }
      ],
      "name": "changeName",
      "outputs": [],
      "payable": false,
      "stateMutability": "nonpayable",
      "type": "function"
    },
    {
      "constant": false,
      "inputs": [
        {
          "name": "_fee",
          "type": "uint256"
        }
      ],
      "name": "setLevelUpFee",
      "outputs": [],
      "payable": false,
      "stateMutability": "nonpayable",
      "type": "function"
    },
    {
      "constant": false,
      "inputs": [
        {
          "name": "newOwner",
          "type": "address"
        }
      ],
      "name": "transferOwnership",
      "outputs": [],
      "payable": false,
      "stateMutability": "nonpayable",
      "type": "function"
    },
    {
      "anonymous": false,
      "inputs": [
        {
          "indexed": false,
          "name": "zombieId",
          "type": "uint256"
        },
        {
          "indexed": false,
          "name": "name",
          "type": "string"
        },
        {
          "indexed": false,
          "name": "dna",
          "type": "uint256"
        }
      ],
      "name": "NewZombie",
      "type": "event"
    },
    {
      "anonymous": false,
      "inputs": [
        {
          "indexed": true,
          "name": "previousOwner",
          "type": "address"
        },
        {
          "indexed": true,
          "name": "newOwner",
          "type": "address"
        }
      ],
      "name": "OwnershipTransferred",
      "type": "event"
    }
  ],
  "bytecode": "0x60806040526010600155600154600a0a6002556201518060035566038d7ea4c68000600855336000806101000a81548173ffffffffffffffffffffffffffffffffffffffff021916908373ffffffffffffffffffffffffffffffffffffffff1602179055506000809054906101000a900473ffffffffffffffffffffffffffffffffffffffff1673ffffffffffffffffffffffffffffffffffffffff16600073ffffffffffffffffffffffffffffffffffffffff167f8be0079c531659141344cd1fd0a4f28419497f9722a3daafe3b4186f6b6457e060405160405180910390a3611fb4806100ef6000396000f3fe608060405260043610610112576000357c0100000000000000000000000000000000000000000000000000000000900463ffffffff16806301afd7e1146101175780630ce90ec21461017c57806317a7f4cc146101aa5780632052465e146101ef5780633ccfd60b146102ee578063422627c3146102f85780634412e10414610347578063528b7b8f146103ed5780635f4623f1146104685780635faf2880146104b95780636b8ff574146104fe578063715018a6146105b25780637bff0a01146105c957806386481d40146106915780638da5cb5b146106e05780638f32d59b14610737578063c225289714610766578063c39cbef114610791578063ccf670f814610821578063f2fde38b1461085c575b600080fd5b34801561012357600080fd5b506101666004803603602081101561013a57600080fd5b81019080803573ffffffffffffffffffffffffffffffffffffffff1690602001909291905050506108ad565b6040518082815260200191505060405180910390f35b6101a86004803603602081101561019257600080fd5b81019080803590602001909291905050506108c5565b005b3480156101b657600080fd5b506101ed600480360360408110156101cd57600080fd5b8101908080359060200190929190803590602001909291905050506109c9565b005b3480156101fb57600080fd5b506102286004803603602081101561021257600080fd5b8101908080359060200190929190505050610b70565b60405180806020018781526020018663ffffffff1663ffffffff1681526020018563ffffffff1663ffffffff1681526020018461ffff1661ffff1681526020018361ffff1661ffff168152602001828103825288818151815260200191508051906020019080838360005b838110156102ae578082015181840152602081019050610293565b50505050905090810190601f1680156102db5780820380516001836020036101000a031916815260200191505b5097505050505050505060405180910390f35b6102f6610c8f565b005b34801561030457600080fd5b506103316004803603602081101561031b57600080fd5b8101908080359060200190929190505050610d0f565b6040518082815260200191505060405180910390f35b34801561035357600080fd5b506103966004803603602081101561036a57600080fd5b81019080803573ffffffffffffffffffffffffffffffffffffffff169060200190929190505050610e11565b6040518080602001828103825283818151815260200191508051906020019060200280838360005b838110156103d95780820151818401526020810190506103be565b505050509050019250505060405180910390f35b3480156103f957600080fd5b506104266004803603602081101561041057600080fd5b8101908080359060200190929190505050610f42565b604051808273ffffffffffffffffffffffffffffffffffffffff1673ffffffffffffffffffffffffffffffffffffffff16815260200191505060405180910390f35b34801561047457600080fd5b506104b76004803603602081101561048b57600080fd5b81019080803573ffffffffffffffffffffffffffffffffffffffff169060200190929190505050610f75565b005b3480156104c557600080fd5b506104fc600480360360408110156104dc57600080fd5b810190808035906020019092919080359060200190929190505050610fcc565b005b34801561050a57600080fd5b506105376004803603602081101561052157600080fd5b8101908080359060200190929190505050611117565b6040518080602001828103825283818151815260200191508051906020019080838360005b8381101561057757808201518184015260208101905061055c565b50505050905090810190601f1680156105a45780820380516001836020036101000a031916815260200191505b509250505060405180910390f35b3480156105be57600080fd5b506105c76112b1565b005b3480156105d557600080fd5b5061068f600480360360208110156105ec57600080fd5b810190808035906020019064010000000081111561060957600080fd5b82018360208201111561061b57600080fd5b8035906020019184600183028401116401000000008311171561063d57600080fd5b91908080601f016020809104026020016040519081016040528093929190818152602001838380828437600081840152601f19601f820116905080830192505050505050509192919290505050611383565b005b34801561069d57600080fd5b506106ca600480360360208110156106b457600080fd5b81019080803590602001909291905050506113fb565b6040518082815260200191505060405180910390f35b3480156106ec57600080fd5b506106f561143b565b604051808273ffffffffffffffffffffffffffffffffffffffff1673ffffffffffffffffffffffffffffffffffffffff16815260200191505060405180910390f35b34801561074357600080fd5b5061074c611464565b604051808215151515815260200191505060405180910390f35b34801561077257600080fd5b5061077b6114bb565b6040518082815260200191505060405180910390f35b34801561079d57600080fd5b5061081f600480360360408110156107b457600080fd5b8101908080359060200190929190803590602001906401000000008111156107db57600080fd5b8201836020820111156107ed57600080fd5b8035906020019184600183028401116401000000008311171561080f57600080fd5b90919293919293905050506114c8565b005b34801561082d57600080fd5b5061085a6004803603602081101561084457600080fd5b810190808035906020019092919050505061161f565b005b34801561086857600080fd5b506108ab6004803603602081101561087f57600080fd5b81019080803573ffffffffffffffffffffffffffffffffffffffff16906020019092919050505061163c565b005b60066020528060005260406000206000915090505481565b6008543414151561093e576040517f08c379a000000000000000000000000000000000000000000000000000000000815260040180806020018281038252601d8152602001807f4e6f7420456e6f75676820416d6f756e7420546f204c6576656c20557000000081525060200191505060405180910390fd5b610988600160048381548110151561095257fe5b906000526020600020906003020160020160009054906101000a900463ffffffff1663ffffffff1661165b90919063ffffffff16565b60048281548110151561099757fe5b906000526020600020906003020160020160006101000a81548163ffffffff021916908363ffffffff16021790555050565b6000600760009054906101000a900473ffffffffffffffffffffffffffffffffffffffff1673ffffffffffffffffffffffffffffffffffffffff1663e98b7f4d836040518263ffffffff167c0100000000000000000000000000000000000000000000000000000000028152600401808281526020019150506101406040518083038186803b158015610a5b57600080fd5b505afa158015610a6f573d6000803e3d6000fd5b505050506040513d610140811015610a8657600080fd5b810190808051906020019092919080519060200190929190805190602001909291908051906020019092919080519060200190929190805190602001909291908051906020019092919080519060200190929190805190602001909291908051906020019092919050505090919293949596979850909192939495969750909192939495965090919293949550909192939450909192935090919250909150905080915050610b6b83826040805190810160405280600581526020017f6b69747479000000000000000000000000000000000000000000000000000000815250611685565b505050565b600481815481101515610b7f57fe5b9060005260206000209060030201600091509050806000018054600181600116156101000203166002900480601f016020809104026020016040519081016040528092919081815260200182805460018160011615610100020316600290048015610c2b5780601f10610c0057610100808354040283529160200191610c2b565b820191906000526020600020905b815481529060010190602001808311610c0e57829003601f168201915b5050505050908060010154908060020160009054906101000a900463ffffffff16908060020160049054906101000a900463ffffffff16908060020160089054906101000a900461ffff169080600201600a9054906101000a900461ffff16905086565b610c97611464565b1515610ca257600080fd5b6000610cac61143b565b90508073ffffffffffffffffffffffffffffffffffffffff166108fc3073ffffffffffffffffffffffffffffffffffffffff16319081150290604051600060405180830381858888f19350505050158015610d0b573d6000803e3d6000fd5b5050565b6000816005600082815260200190815260200160002060009054906101000a900473ffffffffffffffffffffffffffffffffffffffff1673ffffffffffffffffffffffffffffffffffffffff163373ffffffffffffffffffffffffffffffffffffffff16141515610de8576040517f08c379a00000000000000000000000000000000000000000000000000000000081526004018080602001828103825260148152602001807f4e6f7420746865207a6f6d626965206f776e657200000000000000000000000081525060200191505060405180910390fd5b600483815481101515610df757fe5b906000526020600020906003020160010154915050919050565b606080600660008473ffffffffffffffffffffffffffffffffffffffff1673ffffffffffffffffffffffffffffffffffffffff16815260200190815260200160002054604051908082528060200260200182016040528015610e825781602001602082028038833980820191505090505b509050600080905060008090505b600480549050811015610f37578473ffffffffffffffffffffffffffffffffffffffff166005600083815260200190815260200160002060009054906101000a900473ffffffffffffffffffffffffffffffffffffffff1673ffffffffffffffffffffffffffffffffffffffff161415610f2a57808383815181101515610f1357fe5b906020019060200201818152505081806001019250505b8080600101915050610e90565b508192505050919050565b60056020528060005260406000206000915054906101000a900473ffffffffffffffffffffffffffffffffffffffff1681565b610f7d611464565b1515610f8857600080fd5b80600760006101000a81548173ffffffffffffffffffffffffffffffffffffffff021916908373ffffffffffffffffffffffffffffffffffffffff16021790555050565b60148281600482815481101515610fdf57fe5b906000526020600020906003020160020160009054906101000a900463ffffffff1663ffffffff161015151561101457600080fd5b836005600082815260200190815260200160002060009054906101000a900473ffffffffffffffffffffffffffffffffffffffff1673ffffffffffffffffffffffffffffffffffffffff163373ffffffffffffffffffffffffffffffffffffffff161415156110eb576040517f08c379a00000000000000000000000000000000000000000000000000000000081526004018080602001828103825260148152602001807f4e6f7420746865207a6f6d626965206f776e657200000000000000000000000081525060200191505060405180910390fd5b836004868154811015156110fb57fe5b9060005260206000209060030201600101819055505050505050565b6060816005600082815260200190815260200160002060009054906101000a900473ffffffffffffffffffffffffffffffffffffffff1673ffffffffffffffffffffffffffffffffffffffff163373ffffffffffffffffffffffffffffffffffffffff161415156111f0576040517f08c379a00000000000000000000000000000000000000000000000000000000081526004018080602001828103825260148152602001807f4e6f7420746865207a6f6d626965206f776e657200000000000000000000000081525060200191505060405180910390fd5b6004838154811015156111ff57fe5b90600052602060002090600302016000018054600181600116156101000203166002900480601f0160208091040260200160405190810160405280929190818152602001828054600181600116156101000203166002900480156112a45780601f10611279576101008083540402835291602001916112a4565b820191906000526020600020905b81548152906001019060200180831161128757829003601f168201915b5050505050915050919050565b6112b9611464565b15156112c457600080fd5b600073ffffffffffffffffffffffffffffffffffffffff166000809054906101000a900473ffffffffffffffffffffffffffffffffffffffff1673ffffffffffffffffffffffffffffffffffffffff167f8be0079c531659141344cd1fd0a4f28419497f9722a3daafe3b4186f6b6457e060405160405180910390a360008060006101000a81548173ffffffffffffffffffffffffffffffffffffffff021916908373ffffffffffffffffffffffffffffffffffffffff160217905550565b6000600660003373ffffffffffffffffffffffffffffffffffffffff1673ffffffffffffffffffffffffffffffffffffffff168152602001908152602001600020541415156113d157600080fd5b60006113dc82611994565b90506064818115156113ea57fe5b0690506113f78282611a27565b5050565b600060048281548110151561140c57fe5b906000526020600020906003020160020160009054906101000a900463ffffffff1663ffffffff169050919050565b60008060009054906101000a900473ffffffffffffffffffffffffffffffffffffffff16905090565b60008060009054906101000a900473ffffffffffffffffffffffffffffffffffffffff1673ffffffffffffffffffffffffffffffffffffffff163373ffffffffffffffffffffffffffffffffffffffff1614905090565b6000600480549050905090565b600283816004828154811015156114db57fe5b906000526020600020906003020160020160009054906101000a900463ffffffff1663ffffffff161015151561151057600080fd5b846005600082815260200190815260200160002060009054906101000a900473ffffffffffffffffffffffffffffffffffffffff1673ffffffffffffffffffffffffffffffffffffffff163373ffffffffffffffffffffffffffffffffffffffff161415156115e7576040517f08c379a00000000000000000000000000000000000000000000000000000000081526004018080602001828103825260148152602001807f4e6f7420746865207a6f6d626965206f776e657200000000000000000000000081525060200191505060405180910390fd5b84846004888154811015156115f857fe5b90600052602060002090600302016000019190611616929190611e63565b50505050505050565b611627611464565b151561163257600080fd5b8060088190555050565b611644611464565b151561164f57600080fd5b61165881611cfa565b50565b60008082840190508363ffffffff168163ffffffff161015151561167b57fe5b8091505092915050565b826005600082815260200190815260200160002060009054906101000a900473ffffffffffffffffffffffffffffffffffffffff1673ffffffffffffffffffffffffffffffffffffffff163373ffffffffffffffffffffffffffffffffffffffff1614151561175c576040517f08c379a00000000000000000000000000000000000000000000000000000000081526004018080602001828103825260148152602001807f4e6f7420746865207a6f6d626965206f776e657200000000000000000000000081525060200191505060405180910390fd5b600060048581548110151561176d57fe5b9060005260206000209060030201905061178681611df4565b15156117fa576040517f08c379a00000000000000000000000000000000000000000000000000000000081526004018080602001828103825260138152602001807f5a6f6d626965206973206e6f742072656164790000000000000000000000000081525060200191505060405180910390fd5b6002548481151561180757fe5b069350600060028583600101540181151561181e57fe5b04905060405160200180807f6b69747479000000000000000000000000000000000000000000000000000000815250600501905060405160208183030381529060405280519060200120846040516020018082805190602001908083835b6020831015156118a1578051825260208201915060208101905060208303925061187c565b6001836020036101000a0380198251168184511680821785525050505050509050019150506040516020818303038152906040528051906020012014156119435760636064828115156118f057fe5b0682030190506119356040805190810160405280601281526020017f5370656369616c4b697474795a6f6d626965000000000000000000000000000081525082611a27565b61193e82611e1b565b61198c565b6119826040805190810160405280600681526020017f4e6f4e616d65000000000000000000000000000000000000000000000000000081525082611a27565b61198b82611e1b565b5b505050505050565b600080826040516020018082805190602001908083835b6020831015156119d057805182526020820191506020810190506020830392506119ab565b6001836020036101000a0380198251168184511680821785525050505050509050019150506040516020818303038152906040528051906020012060019004905060025481811515611a1e57fe5b06915050919050565b60006001600460c060405190810160405280868152602001858152602001600163ffffffff168152602001600354420163ffffffff168152602001600061ffff168152602001600061ffff16815250908060018154018082558091505090600182039060005260206000209060030201600090919290919091506000820151816000019080519060200190611abd929190611ee3565b506020820151816001015560408201518160020160006101000a81548163ffffffff021916908363ffffffff16021790555060608201518160020160046101000a81548163ffffffff021916908363ffffffff16021790555060808201518160020160086101000a81548161ffff021916908361ffff16021790555060a082015181600201600a6101000a81548161ffff021916908361ffff1602179055505050039050336005600083815260200190815260200160002060006101000a81548173ffffffffffffffffffffffffffffffffffffffff021916908373ffffffffffffffffffffffffffffffffffffffff160217905550611c066001600660003373ffffffffffffffffffffffffffffffffffffffff1673ffffffffffffffffffffffffffffffffffffffff16815260200190815260200160002054611e4590919063ffffffff16565b600660003373ffffffffffffffffffffffffffffffffffffffff1673ffffffffffffffffffffffffffffffffffffffff168152602001908152602001600020819055507f88f026aacbbecc90c18411df4b1185fd8d9be2470f1962f192bf84a27d0704b78184846040518084815260200180602001838152602001828103825284818151815260200191508051906020019080838360005b83811015611cb9578082015181840152602081019050611c9e565b50505050905090810190601f168015611ce65780820380516001836020036101000a031916815260200191505b5094505050505060405180910390a1505050565b600073ffffffffffffffffffffffffffffffffffffffff168173ffffffffffffffffffffffffffffffffffffffff1614151515611d3657600080fd5b8073ffffffffffffffffffffffffffffffffffffffff166000809054906101000a900473ffffffffffffffffffffffffffffffffffffffff1673ffffffffffffffffffffffffffffffffffffffff167f8be0079c531659141344cd1fd0a4f28419497f9722a3daafe3b4186f6b6457e060405160405180910390a3806000806101000a81548173ffffffffffffffffffffffffffffffffffffffff021916908373ffffffffffffffffffffffffffffffffffffffff16021790555050565b6000428260020160049054906101000a900463ffffffff1663ffffffff1611159050919050565b60035442018160020160046101000a81548163ffffffff021916908363ffffffff16021790555050565b6000808284019050838110151515611e5957fe5b8091505092915050565b828054600181600116156101000203166002900490600052602060002090601f016020900481019282601f10611ea457803560ff1916838001178555611ed2565b82800160010185558215611ed2579182015b82811115611ed1578235825591602001919060010190611eb6565b5b509050611edf9190611f63565b5090565b828054600181600116156101000203166002900490600052602060002090601f016020900481019282601f10611f2457805160ff1916838001178555611f52565b82800160010185558215611f52579182015b82811115611f51578251825591602001919060010190611f36565b5b509050611f5f9190611f63565b5090565b611f8591905b80821115611f81576000816000905550600101611f69565b5090565b9056fea165627a7a72305820b938cb1927083900f108cce19ba4b1056ddd6257439be9425ba15cd859d9a5c50029",
  "linkReferences": {},
  "deployedLinkReferences": {}
}