{
  "_format": "hh-sol-artifact-1",
  "contractName": "ZombieFactory",
  "sourceName": "contracts/zombiefactory.sol",
  "abi": [
    {
      "constant": true,
      "inputs": [
        {
          "name": "",
          "type": "address"
        }
      ],
      "name": "ownerZombieCount",
      "outputs": [
        {
          "name": "",
          "type": "uint256"
        }
      ],
      "payable": false,
      "stateMutability": "view",
      "type": "function"
    },
    {
      "constant": true,
      "inputs": [
        {
          "name": "",
          "type": "uint256"
        }
      ],
      "name": "zombies",
      "outputs": [
        {
          "name": "name",
          "type": "string"
        },
        {
          "name": "dna",
          "type": "uint256"
        },
        {
          "name": "level",
          "type": "uint32"
        },
        {
          "name": "readyTime",
          "type": "uint32"
        },
        {
          "name": "winCount",
          "type": "uint16"
        },
        {
          "name": "lossCount",
          "type": "uint16"
        }
      ],
      "payable": false,
      "stateMutability": "view",
      "type": "function"
    },
    {
      "constant": true,
      "inputs": [
        {
          "name": "",
          "type": "uint256"
        }
      ],
      "name": "zombieToOwner",
      "outputs": [
        {
          "name": "",
          "type": "address"
        }
      ],
      "payable": false,
      "stateMutability": "view",
      "type": "function"
    },
    {
      "constant": false,
      "inputs": [],
      "name": "renounceOwnership",
      "outputs": [],
      "payable": false,
      "stateMutability": "nonpayable",
      "type": "function"
    },
    {
      "constant": false,
      "inputs": [
        {
          "name": "_name",
          "type": "string"
        }
      ],
      "name": "createRandomZombie",
      "outputs": [],
      "payable": false,
      "stateMutability": "nonpayable",
      "type": "function"
    },
    {
      "constant": true,
      "inputs": [],
      "name": "owner",
      "outputs": [
        {
          "name": "",
          "type": "address"
        }
      ],
      "payable": false,
      "stateMutability": "view",
      "type": "function"
    },
    {
      "constant": true,
      "inputs": [],
      "name": "isOwner",
      "outputs": [
        {
          "name": "",
          "type": "bool"
        }
      ],
      "payable": false,
      "stateMutability": "view",
      "type": "function"
    },
    {
      "constant": true,
      "inputs": [],
      "name": "zombiesCount",
      "outputs": [
        {
          "name": "",
          "type": "uint256"
        }
      ],
      "payable": false,
      "stateMutability": "view",
      "type": "function"
    },
    {
      "constant": false,
      "inputs": [
        {
          "name": "newOwner",
          "type": "address"
        }
      ],
      "name": "transferOwnership",
      "outputs": [],
      "payable": false,
      "stateMutability": "nonpayable",
      "type": "function"
    },
    {
      "anonymous": false,
      "inputs": [
        {
          "indexed": false,
          "name": "zombieId",
          "type": "uint256"
        },
        {
          "indexed": false,
          "name": "name",
          "type": "string"
        },
        {
          "indexed": false,
          "name": "dna",
          "type": "uint256"
        }
      ],
      "name": "NewZombie",
      "type": "event"
    },
    {
      "anonymous": false,
      "inputs": [
        {
          "indexed": true,
          "name": "previousOwner",
          "type": "address"
        },
        {
          "indexed": true,
          "name": "newOwner",
          "type": "address"
        }
      ],
      "name": "OwnershipTransferred",
      "type": "event"
    }
  ],
  "bytecode": "0x60806040526010600155600154600a0a60025562015180600355336000806101000a81548173ffffffffffffffffffffffffffffffffffffffff021916908373ffffffffffffffffffffffffffffffffffffffff1602179055506000809054906101000a900473ffffffffffffffffffffffffffffffffffffffff1673ffffffffffffffffffffffffffffffffffffffff16600073ffffffffffffffffffffffffffffffffffffffff167f8be0079c531659141344cd1fd0a4f28419497f9722a3daafe3b4186f6b6457e060405160405180910390a3610d0d806100e46000396000f3fe608060405260043610610099576000357c0100000000000000000000000000000000000000000000000000000000900463ffffffff16806301afd7e11461009e5780632052465e14610103578063528b7b8f14610202578063715018a61461027d5780637bff0a01146102945780638da5cb5b1461035c5780638f32d59b146103b3578063c2252897146103e2578063f2fde38b1461040d575b600080fd5b3480156100aa57600080fd5b506100ed600480360360208110156100c157600080fd5b81019080803573ffffffffffffffffffffffffffffffffffffffff16906020019092919050505061045e565b6040518082815260200191505060405180910390f35b34801561010f57600080fd5b5061013c6004803603602081101561012657600080fd5b8101908080359060200190929190505050610476565b60405180806020018781526020018663ffffffff1663ffffffff1681526020018563ffffffff1663ffffffff1681526020018461ffff1661ffff1681526020018361ffff1661ffff168152602001828103825288818151815260200191508051906020019080838360005b838110156101c25780820151818401526020810190506101a7565b50505050905090810190601f1680156101ef5780820380516001836020036101000a031916815260200191505b5097505050505050505060405180910390f35b34801561020e57600080fd5b5061023b6004803603602081101561022557600080fd5b8101908080359060200190929190505050610595565b604051808273ffffffffffffffffffffffffffffffffffffffff1673ffffffffffffffffffffffffffffffffffffffff16815260200191505060405180910390f35b34801561028957600080fd5b506102926105c8565b005b3480156102a057600080fd5b5061035a600480360360208110156102b757600080fd5b81019080803590602001906401000000008111156102d457600080fd5b8201836020820111156102e657600080fd5b8035906020019184600183028401116401000000008311171561030857600080fd5b91908080601f016020809104026020016040519081016040528093929190818152602001838380828437600081840152601f19601f82011690508083019250505050505050919291929050505061069a565b005b34801561036857600080fd5b50610371610712565b604051808273ffffffffffffffffffffffffffffffffffffffff1673ffffffffffffffffffffffffffffffffffffffff16815260200191505060405180910390f35b3480156103bf57600080fd5b506103c861073b565b604051808215151515815260200191505060405180910390f35b3480156103ee57600080fd5b506103f7610792565b6040518082815260200191505060405180910390f35b34801561041957600080fd5b5061045c6004803603602081101561043057600080fd5b81019080803573ffffffffffffffffffffffffffffffffffffffff16906020019092919050505061079f565b005b60066020528060005260406000206000915090505481565b60048181548110151561048557fe5b9060005260206000209060030201600091509050806000018054600181600116156101000203166002900480601f0160208091040260200160405190810160405280929190818152602001828054600181600116156101000203166002900480156105315780601f1061050657610100808354040283529160200191610531565b820191906000526020600020905b81548152906001019060200180831161051457829003601f168201915b5050505050908060010154908060020160009054906101000a900463ffffffff16908060020160049054906101000a900463ffffffff16908060020160089054906101000a900461ffff169080600201600a9054906101000a900461ffff16905086565b60056020528060005260406000206000915054906101000a900473ffffffffffffffffffffffffffffffffffffffff1681565b6105d061073b565b15156105db57600080fd5b600073ffffffffffffffffffffffffffffffffffffffff166000809054906101000a900473ffffffffffffffffffffffffffffffffffffffff1673ffffffffffffffffffffffffffffffffffffffff167f8be0079c531659141344cd1fd0a4f28419497f9722a3daafe3b4186f6b6457e060405160405180910390a360008060006101000a81548173ffffffffffffffffffffffffffffffffffffffff021916908373ffffffffffffffffffffffffffffffffffffffff160217905550565b6000600660003373ffffffffffffffffffffffffffffffffffffffff1673ffffffffffffffffffffffffffffffffffffffff168152602001908152602001600020541415156106e857600080fd5b60006106f3826107be565b905060648181151561070157fe5b06905061070e8282610851565b5050565b60008060009054906101000a900473ffffffffffffffffffffffffffffffffffffffff16905090565b60008060009054906101000a900473ffffffffffffffffffffffffffffffffffffffff1673ffffffffffffffffffffffffffffffffffffffff163373ffffffffffffffffffffffffffffffffffffffff1614905090565b6000600480549050905090565b6107a761073b565b15156107b257600080fd5b6107bb81610b24565b50565b600080826040516020018082805190602001908083835b6020831015156107fa57805182526020820191506020810190506020830392506107d5565b6001836020036101000a038019825116818451168082178552505050505050905001915050604051602081830303815290604052805190602001206001900490506002548181151561084857fe5b06915050919050565b60006001600460c060405190810160405280868152602001858152602001600163ffffffff168152602001600354420163ffffffff168152602001600061ffff168152602001600061ffff168152509080600181540180825580915050906001820390600052602060002090600302016000909192909190915060008201518160000190805190602001906108e7929190610c3c565b506020820151816001015560408201518160020160006101000a81548163ffffffff021916908363ffffffff16021790555060608201518160020160046101000a81548163ffffffff021916908363ffffffff16021790555060808201518160020160086101000a81548161ffff021916908361ffff16021790555060a082015181600201600a6101000a81548161ffff021916908361ffff1602179055505050039050336005600083815260200190815260200160002060006101000a81548173ffffffffffffffffffffffffffffffffffffffff021916908373ffffffffffffffffffffffffffffffffffffffff160217905550610a306001600660003373ffffffffffffffffffffffffffffffffffffffff1673ffffffffffffffffffffffffffffffffffffffff16815260200190815260200160002054610c1e90919063ffffffff16565b600660003373ffffffffffffffffffffffffffffffffffffffff1673ffffffffffffffffffffffffffffffffffffffff168152602001908152602001600020819055507f88f026aacbbecc90c18411df4b1185fd8d9be2470f1962f192bf84a27d0704b78184846040518084815260200180602001838152602001828103825284818151815260200191508051906020019080838360005b83811015610ae3578082015181840152602081019050610ac8565b50505050905090810190601f168015610b105780820380516001836020036101000a031916815260200191505b5094505050505060405180910390a1505050565b600073ffffffffffffffffffffffffffffffffffffffff168173ffffffffffffffffffffffffffffffffffffffff1614151515610b6057600080fd5b8073ffffffffffffffffffffffffffffffffffffffff166000809054906101000a900473ffffffffffffffffffffffffffffffffffffffff1673ffffffffffffffffffffffffffffffffffffffff167f8be0079c531659141344cd1fd0a4f28419497f9722a3daafe3b4186f6b6457e060405160405180910390a3806000806101000a81548173ffffffffffffffffffffffffffffffffffffffff021916908373ffffffffffffffffffffffffffffffffffffffff16021790555050565b6000808284019050838110151515610c3257fe5b8091505092915050565b828054600181600116156101000203166002900490600052602060002090601f016020900481019282601f10610c7d57805160ff1916838001178555610cab565b82800160010185558215610cab579182015b82811115610caa578251825591602001919060010190610c8f565b5b509050610cb89190610cbc565b5090565b610cde91905b80821115610cda576000816000905550600101610cc2565b5090565b9056fea165627a7a72305820782f7fc56b549fa33a57986db39a46dffda96d59dfc6fcd48cc593b6ea36eacd0029",
  "linkReferences": {},
  "deployedLinkReferences": {}
}