{
  "_format": "hh-sol-artifact-1",
  "contractName": "ZombieAttack",
  "sourceName": "contracts/zombieattack.sol",
  "abi": [
    {
      "constant": true,
      "inputs": [
        {
          "name": "",
          "type": "address"
        }
      ],
      "name": "ownerZombieCount",
      "outputs": [
        {
          "name": "",
          "type": "uint256"
        }
      ],
      "payable": false,
      "stateMutability": "view",
      "type": "function"
    },
    {
      "constant": false,
      "inputs": [
        {
          "name": "_zombieId",
          "type": "uint256"
        }
      ],
      "name": "levelUp",
      "outputs": [],
      "payable": true,
      "stateMutability": "payable",
      "type": "function"
    },
    {
      "constant": false,
      "inputs": [
        {
          "name": "_zombieId",
          "type": "uint256"
        },
        {
          "name": "_kittyId",
          "type": "uint256"
        }
      ],
      "name": "feedOnKitty",
      "outputs": [],
      "payable": false,
      "stateMutability": "nonpayable",
      "type": "function"
    },
    {
      "constant": true,
      "inputs": [
        {
          "name": "",
          "type": "uint256"
        }
      ],
      "name": "zombies",
      "outputs": [
        {
          "name": "name",
          "type": "string"
        },
        {
          "name": "dna",
          "type": "uint256"
        },
        {
          "name": "level",
          "type": "uint32"
        },
        {
          "name": "readyTime",
          "type": "uint32"
        },
        {
          "name": "winCount",
          "type": "uint16"
        },
        {
          "name": "lossCount",
          "type": "uint16"
        }
      ],
      "payable": false,
      "stateMutability": "view",
      "type": "function"
    },
    {
      "constant": false,
      "inputs": [],
      "name": "withdraw",
      "outputs": [],
      "payable": true,
      "stateMutability": "payable",
      "type": "function"
    },
    {
      "constant": true,
      "inputs": [
        {
          "name": "_zombieId",
          "type": "uint256"
        }
      ],
      "name": "getDna",
      "outputs": [
        {
          "name": "",
          "type": "uint256"
        }
      ],
      "payable": false,
      "stateMutability": "view",
      "type": "function"
    },
    {
      "constant": true,
      "inputs": [
        {
          "name": "_owner",
          "type": "address"
        }
      ],
      "name": "getZombiesByOwner",
      "outputs": [
        {
          "name": "",
          "type": "uint256[]"
        }
      ],
      "payable": false,
      "stateMutability": "view",
      "type": "function"
    },
    {
      "constant": true,
      "inputs": [
        {
          "name": "",
          "type": "uint256"
        }
      ],
      "name": "zombieToOwner",
      "outputs": [
        {
          "name": "",
          "type": "address"
        }
      ],
      "payable": false,
      "stateMutability": "view",
      "type": "function"
    },
    {
      "constant": false,
      "inputs": [
        {
          "name": "_address",
          "type": "address"
        }
      ],
      "name": "setKittyContractAddress",
      "outputs": [],
      "payable": false,
      "stateMutability": "nonpayable",
      "type": "function"
    },
    {
      "constant": false,
      "inputs": [
        {
          "name": "_zombieId",
          "type": "uint256"
        },
        {
          "name": "_newDna",
          "type": "uint256"
        }
      ],
      "name": "changeDna",
      "outputs": [],
      "payable": false,
      "stateMutability": "nonpayable",
      "type": "function"
    },
    {
      "constant": true,
      "inputs": [
        {
          "name": "_zombieId",
          "type": "uint256"
        }
      ],
      "name": "getName",
      "outputs": [
        {
          "name": "",
          "type": "string"
        }
      ],
      "payable": false,
      "stateMutability": "view",
      "type": "function"
    },
    {
      "constant": false,
      "inputs": [],
      "name": "renounceOwnership",
      "outputs": [],
      "payable": false,
      "stateMutability": "nonpayable",
      "type": "function"
    },
    {
      "constant": true,
      "inputs": [
        {
          "name": "_zombieId",
          "type": "uint256"
        }
      ],
      "name": "getLossCount",
      "outputs": [
        {
          "name": "",
          "type": "uint256"
        }
      ],
      "payable": false,
      "stateMutability": "view",
      "type": "function"
    },
    {
      "constant": false,
      "inputs": [
        {
          "name": "_name",
          "type": "string"
        }
      ],
      "name": "createRandomZombie",
      "outputs": [],
      "payable": false,
      "stateMutability": "nonpayable",
      "type": "function"
    },
    {
      "constant": true,
      "inputs": [
        {
          "name": "_zombieId",
          "type": "uint256"
        }
      ],
      "name": "getLevel",
      "outputs": [
        {
          "name": "",
          "type": "uint256"
        }
      ],
      "payable": false,
      "stateMutability": "view",
      "type": "function"
    },
    {
      "constant": true,
      "inputs": [],
      "name": "owner",
      "outputs": [
        {
          "name": "",
          "type": "address"
        }
      ],
      "payable": false,
      "stateMutability": "view",
      "type": "function"
    },
    {
      "constant": true,
      "inputs": [],
      "name": "isOwner",
      "outputs": [
        {
          "name": "",
          "type": "bool"
        }
      ],
      "payable": false,
      "stateMutability": "view",
      "type": "function"
    },
    {
      "constant": true,
      "inputs": [],
      "name": "zombiesCount",
      "outputs": [
        {
          "name": "",
          "type": "uint256"
        }
      ],
      "payable": false,
      "stateMutability": "view",
      "type": "function"
    },
    {
      "constant": false,
      "inputs": [
        {
          "name": "_zombieId",
          "type": "uint256"
        },
        {
          "name": "_newName",
          "type": "string"
        }
      ],
      "name": "changeName",
      "outputs": [],
      "payable": false,
      "stateMutability": "nonpayable",
      "type": "function"
    },
    {
      "constant": false,
      "inputs": [
        {
          "name": "_fee",
          "type": "uint256"
        }
      ],
      "name": "setLevelUpFee",
      "outputs": [],
      "payable": false,
      "stateMutability": "nonpayable",
      "type": "function"
    },
    {
      "constant": false,
      "inputs": [
        {
          "name": "_zombieId",
          "type": "uint256"
        },
        {
          "name": "_targetId",
          "type": "uint256"
        }
      ],
      "name": "attack",
      "outputs": [],
      "payable": false,
      "stateMutability": "nonpayable",
      "type": "function"
    },
    {
      "constant": true,
      "inputs": [
        {
          "name": "_zombieId",
          "type": "uint256"
        }
      ],
      "name": "getWinCount",
      "outputs": [
        {
          "name": "",
          "type": "uint256"
        }
      ],
      "payable": false,
      "stateMutability": "view",
      "type": "function"
    },
    {
      "constant": false,
      "inputs": [
        {
          "name": "newOwner",
          "type": "address"
        }
      ],
      "name": "transferOwnership",
      "outputs": [],
      "payable": false,
      "stateMutability": "nonpayable",
      "type": "function"
    },
    {
      "anonymous": false,
      "inputs": [
        {
          "indexed": false,
          "name": "zombieId",
          "type": "uint256"
        },
        {
          "indexed": false,
          "name": "name",
          "type": "string"
        },
        {
          "indexed": false,
          "name": "dna",
          "type": "uint256"
        }
      ],
      "name": "NewZombie",
      "type": "event"
    },
    {
      "anonymous": false,
      "inputs": [
        {
          "indexed": true,
          "name": "previousOwner",
          "type": "address"
        },
        {
          "indexed": true,
          "name": "newOwner",
          "type": "address"
        }
      ],
      "name": "OwnershipTransferred",
      "type": "event"
    }
  ],
  "bytecode": "0x60806040526010600155600154600a0a6002556201518060035566038d7ea4c6800060085560006009556046600a55336000806101000a81548173ffffffffffffffffffffffffffffffffffffffff021916908373ffffffffffffffffffffffffffffffffffffffff1602179055506000809054906101000a900473ffffffffffffffffffffffffffffffffffffffff1673ffffffffffffffffffffffffffffffffffffffff16600073ffffffffffffffffffffffffffffffffffffffff167f8be0079c531659141344cd1fd0a4f28419497f9722a3daafe3b4186f6b6457e060405160405180910390a36126ab806100f96000396000f3fe608060405260043610610133576000357c0100000000000000000000000000000000000000000000000000000000900463ffffffff16806301afd7e1146101385780630ce90ec21461019d57806317a7f4cc146101cb5780632052465e146102105780633ccfd60b1461030f578063422627c3146103195780634412e10414610368578063528b7b8f1461040e5780635f4623f1146104895780635faf2880146104da5780636b8ff5741461051f578063715018a6146105d3578063767bfd83146105ea5780637bff0a011461063957806386481d40146107015780638da5cb5b146107505780638f32d59b146107a7578063c2252897146107d6578063c39cbef114610801578063ccf670f814610891578063e1fa7638146108cc578063e7800e0c14610911578063f2fde38b14610960575b600080fd5b34801561014457600080fd5b506101876004803603602081101561015b57600080fd5b81019080803573ffffffffffffffffffffffffffffffffffffffff1690602001909291905050506109b1565b6040518082815260200191505060405180910390f35b6101c9600480360360208110156101b357600080fd5b81019080803590602001909291905050506109c9565b005b3480156101d757600080fd5b5061020e600480360360408110156101ee57600080fd5b810190808035906020019092919080359060200190929190505050610acd565b005b34801561021c57600080fd5b506102496004803603602081101561023357600080fd5b8101908080359060200190929190505050610c74565b60405180806020018781526020018663ffffffff1663ffffffff1681526020018563ffffffff1663ffffffff1681526020018461ffff1661ffff1681526020018361ffff1661ffff168152602001828103825288818151815260200191508051906020019080838360005b838110156102cf5780820151818401526020810190506102b4565b50505050905090810190601f1680156102fc5780820380516001836020036101000a031916815260200191505b5097505050505050505060405180910390f35b610317610d93565b005b34801561032557600080fd5b506103526004803603602081101561033c57600080fd5b8101908080359060200190929190505050610e13565b6040518082815260200191505060405180910390f35b34801561037457600080fd5b506103b76004803603602081101561038b57600080fd5b81019080803573ffffffffffffffffffffffffffffffffffffffff169060200190929190505050610f15565b6040518080602001828103825283818151815260200191508051906020019060200280838360005b838110156103fa5780820151818401526020810190506103df565b505050509050019250505060405180910390f35b34801561041a57600080fd5b506104476004803603602081101561043157600080fd5b8101908080359060200190929190505050611046565b604051808273ffffffffffffffffffffffffffffffffffffffff1673ffffffffffffffffffffffffffffffffffffffff16815260200191505060405180910390f35b34801561049557600080fd5b506104d8600480360360208110156104ac57600080fd5b81019080803573ffffffffffffffffffffffffffffffffffffffff169060200190929190505050611079565b005b3480156104e657600080fd5b5061051d600480360360408110156104fd57600080fd5b8101908080359060200190929190803590602001909291905050506110d0565b005b34801561052b57600080fd5b506105586004803603602081101561054257600080fd5b810190808035906020019092919050505061121b565b6040518080602001828103825283818151815260200191508051906020019080838360005b8381101561059857808201518184015260208101905061057d565b50505050905090810190601f1680156105c55780820380516001836020036101000a031916815260200191505b509250505060405180910390f35b3480156105df57600080fd5b506105e86113b5565b005b3480156105f657600080fd5b506106236004803603602081101561060d57600080fd5b8101908080359060200190929190505050611487565b6040518082815260200191505060405180910390f35b34801561064557600080fd5b506106ff6004803603602081101561065c57600080fd5b810190808035906020019064010000000081111561067957600080fd5b82018360208201111561068b57600080fd5b803590602001918460018302840111640100000000831117156106ad57600080fd5b91908080601f016020809104026020016040519081016040528093929190818152602001838380828437600081840152601f19601f82011690508083019250505050505050919291929050505061159b565b005b34801561070d57600080fd5b5061073a6004803603602081101561072457600080fd5b8101908080359060200190929190505050611613565b6040518082815260200191505060405180910390f35b34801561075c57600080fd5b50610765611653565b604051808273ffffffffffffffffffffffffffffffffffffffff1673ffffffffffffffffffffffffffffffffffffffff16815260200191505060405180910390f35b3480156107b357600080fd5b506107bc61167c565b604051808215151515815260200191505060405180910390f35b3480156107e257600080fd5b506107eb6116d3565b6040518082815260200191505060405180910390f35b34801561080d57600080fd5b5061088f6004803603604081101561082457600080fd5b81019080803590602001909291908035906020019064010000000081111561084b57600080fd5b82018360208201111561085d57600080fd5b8035906020019184600183028401116401000000008311171561087f57600080fd5b90919293919293905050506116e0565b005b34801561089d57600080fd5b506108ca600480360360208110156108b457600080fd5b8101908080359060200190929190505050611837565b005b3480156108d857600080fd5b5061090f600480360360408110156108ef57600080fd5b810190808035906020019092919080359060200190929190505050611854565b005b34801561091d57600080fd5b5061094a6004803603602081101561093457600080fd5b8101908080359060200190929190505050611b51565b6040518082815260200191505060405180910390f35b34801561096c57600080fd5b506109af6004803603602081101561098357600080fd5b81019080803573ffffffffffffffffffffffffffffffffffffffff169060200190929190505050611c65565b005b60066020528060005260406000206000915090505481565b60085434141515610a42576040517f08c379a000000000000000000000000000000000000000000000000000000000815260040180806020018281038252601d8152602001807f4e6f7420456e6f75676820416d6f756e7420546f204c6576656c20557000000081525060200191505060405180910390fd5b610a8c6001600483815481101515610a5657fe5b906000526020600020906003020160020160009054906101000a900463ffffffff1663ffffffff16611c8490919063ffffffff16565b600482815481101515610a9b57fe5b906000526020600020906003020160020160006101000a81548163ffffffff021916908363ffffffff16021790555050565b6000600760009054906101000a900473ffffffffffffffffffffffffffffffffffffffff1673ffffffffffffffffffffffffffffffffffffffff1663e98b7f4d836040518263ffffffff167c0100000000000000000000000000000000000000000000000000000000028152600401808281526020019150506101406040518083038186803b158015610b5f57600080fd5b505afa158015610b73573d6000803e3d6000fd5b505050506040513d610140811015610b8a57600080fd5b810190808051906020019092919080519060200190929190805190602001909291908051906020019092919080519060200190929190805190602001909291908051906020019092919080519060200190929190805190602001909291908051906020019092919050505090919293949596979850909192939495969750909192939495965090919293949550909192939450909192935090919250909150905080915050610c6f83826040805190810160405280600581526020017f6b69747479000000000000000000000000000000000000000000000000000000815250611cae565b505050565b600481815481101515610c8357fe5b9060005260206000209060030201600091509050806000018054600181600116156101000203166002900480601f016020809104026020016040519081016040528092919081815260200182805460018160011615610100020316600290048015610d2f5780601f10610d0457610100808354040283529160200191610d2f565b820191906000526020600020905b815481529060010190602001808311610d1257829003601f168201915b5050505050908060010154908060020160009054906101000a900463ffffffff16908060020160049054906101000a900463ffffffff16908060020160089054906101000a900461ffff169080600201600a9054906101000a900461ffff16905086565b610d9b61167c565b1515610da657600080fd5b6000610db0611653565b90508073ffffffffffffffffffffffffffffffffffffffff166108fc3073ffffffffffffffffffffffffffffffffffffffff16319081150290604051600060405180830381858888f19350505050158015610e0f573d6000803e3d6000fd5b5050565b6000816005600082815260200190815260200160002060009054906101000a900473ffffffffffffffffffffffffffffffffffffffff1673ffffffffffffffffffffffffffffffffffffffff163373ffffffffffffffffffffffffffffffffffffffff16141515610eec576040517f08c379a00000000000000000000000000000000000000000000000000000000081526004018080602001828103825260148152602001807f4e6f7420746865207a6f6d626965206f776e657200000000000000000000000081525060200191505060405180910390fd5b600483815481101515610efb57fe5b906000526020600020906003020160010154915050919050565b606080600660008473ffffffffffffffffffffffffffffffffffffffff1673ffffffffffffffffffffffffffffffffffffffff16815260200190815260200160002054604051908082528060200260200182016040528015610f865781602001602082028038833980820191505090505b509050600080905060008090505b60048054905081101561103b578473ffffffffffffffffffffffffffffffffffffffff166005600083815260200190815260200160002060009054906101000a900473ffffffffffffffffffffffffffffffffffffffff1673ffffffffffffffffffffffffffffffffffffffff16141561102e5780838381518110151561101757fe5b906020019060200201818152505081806001019250505b8080600101915050610f94565b508192505050919050565b60056020528060005260406000206000915054906101000a900473ffffffffffffffffffffffffffffffffffffffff1681565b61108161167c565b151561108c57600080fd5b80600760006101000a81548173ffffffffffffffffffffffffffffffffffffffff021916908373ffffffffffffffffffffffffffffffffffffffff16021790555050565b601482816004828154811015156110e357fe5b906000526020600020906003020160020160009054906101000a900463ffffffff1663ffffffff161015151561111857600080fd5b836005600082815260200190815260200160002060009054906101000a900473ffffffffffffffffffffffffffffffffffffffff1673ffffffffffffffffffffffffffffffffffffffff163373ffffffffffffffffffffffffffffffffffffffff161415156111ef576040517f08c379a00000000000000000000000000000000000000000000000000000000081526004018080602001828103825260148152602001807f4e6f7420746865207a6f6d626965206f776e657200000000000000000000000081525060200191505060405180910390fd5b836004868154811015156111ff57fe5b9060005260206000209060030201600101819055505050505050565b6060816005600082815260200190815260200160002060009054906101000a900473ffffffffffffffffffffffffffffffffffffffff1673ffffffffffffffffffffffffffffffffffffffff163373ffffffffffffffffffffffffffffffffffffffff161415156112f4576040517f08c379a00000000000000000000000000000000000000000000000000000000081526004018080602001828103825260148152602001807f4e6f7420746865207a6f6d626965206f776e657200000000000000000000000081525060200191505060405180910390fd5b60048381548110151561130357fe5b90600052602060002090600302016000018054600181600116156101000203166002900480601f0160208091040260200160405190810160405280929190818152602001828054600181600116156101000203166002900480156113a85780601f1061137d576101008083540402835291602001916113a8565b820191906000526020600020905b81548152906001019060200180831161138b57829003601f168201915b5050505050915050919050565b6113bd61167c565b15156113c857600080fd5b600073ffffffffffffffffffffffffffffffffffffffff166000809054906101000a900473ffffffffffffffffffffffffffffffffffffffff1673ffffffffffffffffffffffffffffffffffffffff167f8be0079c531659141344cd1fd0a4f28419497f9722a3daafe3b4186f6b6457e060405160405180910390a360008060006101000a81548173ffffffffffffffffffffffffffffffffffffffff021916908373ffffffffffffffffffffffffffffffffffffffff160217905550565b6000816005600082815260200190815260200160002060009054906101000a900473ffffffffffffffffffffffffffffffffffffffff1673ffffffffffffffffffffffffffffffffffffffff163373ffffffffffffffffffffffffffffffffffffffff16141515611560576040517f08c379a00000000000000000000000000000000000000000000000000000000081526004018080602001828103825260148152602001807f4e6f7420746865207a6f6d626965206f776e657200000000000000000000000081525060200191505060405180910390fd5b60048381548110151561156f57fe5b9060005260206000209060030201600201600a9054906101000a900461ffff1661ffff16915050919050565b6000600660003373ffffffffffffffffffffffffffffffffffffffff1673ffffffffffffffffffffffffffffffffffffffff168152602001908152602001600020541415156115e957600080fd5b60006115f482611fbd565b905060648181151561160257fe5b06905061160f8282612050565b5050565b600060048281548110151561162457fe5b906000526020600020906003020160020160009054906101000a900463ffffffff1663ffffffff169050919050565b60008060009054906101000a900473ffffffffffffffffffffffffffffffffffffffff16905090565b60008060009054906101000a900473ffffffffffffffffffffffffffffffffffffffff1673ffffffffffffffffffffffffffffffffffffffff163373ffffffffffffffffffffffffffffffffffffffff1614905090565b6000600480549050905090565b600283816004828154811015156116f357fe5b906000526020600020906003020160020160009054906101000a900463ffffffff1663ffffffff161015151561172857600080fd5b846005600082815260200190815260200160002060009054906101000a900473ffffffffffffffffffffffffffffffffffffffff1673ffffffffffffffffffffffffffffffffffffffff163373ffffffffffffffffffffffffffffffffffffffff161415156117ff576040517f08c379a00000000000000000000000000000000000000000000000000000000081526004018080602001828103825260148152602001807f4e6f7420746865207a6f6d626965206f776e657200000000000000000000000081525060200191505060405180910390fd5b848460048881548110151561181057fe5b9060005260206000209060030201600001919061182e92919061255a565b50505050505050565b61183f61167c565b151561184a57600080fd5b8060088190555050565b816005600082815260200190815260200160002060009054906101000a900473ffffffffffffffffffffffffffffffffffffffff1673ffffffffffffffffffffffffffffffffffffffff163373ffffffffffffffffffffffffffffffffffffffff1614151561192b576040517f08c379a00000000000000000000000000000000000000000000000000000000081526004018080602001828103825260148152602001807f4e6f7420746865207a6f6d626965206f776e657200000000000000000000000081525060200191505060405180910390fd5b600060048481548110151561193c57fe5b90600052602060002090600302019050600060048481548110151561195d57fe5b9060005260206000209060030201905060006119796064612323565b9050600a5481111515611aaf576119b060018460020160089054906101000a900461ffff1661ffff166123cb90919063ffffffff16565b8360020160086101000a81548161ffff021916908361ffff1602179055506119fc60018460020160009054906101000a900463ffffffff1663ffffffff16611c8490919063ffffffff16565b8360020160006101000a81548163ffffffff021916908363ffffffff160217905550611a48600183600201600a9054906101000a900461ffff1661ffff166123cb90919063ffffffff16565b82600201600a6101000a81548161ffff021916908361ffff160217905550611aaa8683600101546040805190810160405280600681526020017f7a6f6d6269650000000000000000000000000000000000000000000000000000815250611cae565b611b49565b611ad9600184600201600a9054906101000a900461ffff1661ffff166123cb90919063ffffffff16565b83600201600a6101000a81548161ffff021916908361ffff160217905550611b2160018360020160089054906101000a900461ffff1661ffff166123cb90919063ffffffff16565b8260020160086101000a81548161ffff021916908361ffff160217905550611b48836123f1565b5b505050505050565b6000816005600082815260200190815260200160002060009054906101000a900473ffffffffffffffffffffffffffffffffffffffff1673ffffffffffffffffffffffffffffffffffffffff163373ffffffffffffffffffffffffffffffffffffffff16141515611c2a576040517f08c379a00000000000000000000000000000000000000000000000000000000081526004018080602001828103825260148152602001807f4e6f7420746865207a6f6d626965206f776e657200000000000000000000000081525060200191505060405180910390fd5b600483815481101515611c3957fe5b906000526020600020906003020160020160089054906101000a900461ffff1661ffff16915050919050565b611c6d61167c565b1515611c7857600080fd5b611c818161241b565b50565b60008082840190508363ffffffff168163ffffffff1610151515611ca457fe5b8091505092915050565b826005600082815260200190815260200160002060009054906101000a900473ffffffffffffffffffffffffffffffffffffffff1673ffffffffffffffffffffffffffffffffffffffff163373ffffffffffffffffffffffffffffffffffffffff16141515611d85576040517f08c379a00000000000000000000000000000000000000000000000000000000081526004018080602001828103825260148152602001807f4e6f7420746865207a6f6d626965206f776e657200000000000000000000000081525060200191505060405180910390fd5b6000600485815481101515611d9657fe5b90600052602060002090600302019050611daf81612515565b1515611e23576040517f08c379a00000000000000000000000000000000000000000000000000000000081526004018080602001828103825260138152602001807f5a6f6d626965206973206e6f742072656164790000000000000000000000000081525060200191505060405180910390fd5b60025484811515611e3057fe5b0693506000600285836001015401811515611e4757fe5b04905060405160200180807f6b69747479000000000000000000000000000000000000000000000000000000815250600501905060405160208183030381529060405280519060200120846040516020018082805190602001908083835b602083101515611eca5780518252602082019150602081019050602083039250611ea5565b6001836020036101000a038019825116818451168082178552505050505050905001915050604051602081830303815290604052805190602001201415611f6c576063606482811515611f1957fe5b068203019050611f5e6040805190810160405280601281526020017f5370656369616c4b697474795a6f6d626965000000000000000000000000000081525082612050565b611f67826123f1565b611fb5565b611fab6040805190810160405280600681526020017f4e6f4e616d65000000000000000000000000000000000000000000000000000081525082612050565b611fb4826123f1565b5b505050505050565b600080826040516020018082805190602001908083835b602083101515611ff95780518252602082019150602081019050602083039250611fd4565b6001836020036101000a038019825116818451168082178552505050505050905001915050604051602081830303815290604052805190602001206001900490506002548181151561204757fe5b06915050919050565b60006001600460c060405190810160405280868152602001858152602001600163ffffffff168152602001600354420163ffffffff168152602001600061ffff168152602001600061ffff168152509080600181540180825580915050906001820390600052602060002090600302016000909192909190915060008201518160000190805190602001906120e69291906125da565b506020820151816001015560408201518160020160006101000a81548163ffffffff021916908363ffffffff16021790555060608201518160020160046101000a81548163ffffffff021916908363ffffffff16021790555060808201518160020160086101000a81548161ffff021916908361ffff16021790555060a082015181600201600a6101000a81548161ffff021916908361ffff1602179055505050039050336005600083815260200190815260200160002060006101000a81548173ffffffffffffffffffffffffffffffffffffffff021916908373ffffffffffffffffffffffffffffffffffffffff16021790555061222f6001600660003373ffffffffffffffffffffffffffffffffffffffff1673ffffffffffffffffffffffffffffffffffffffff1681526020019081526020016000205461253c90919063ffffffff16565b600660003373ffffffffffffffffffffffffffffffffffffffff1673ffffffffffffffffffffffffffffffffffffffff168152602001908152602001600020819055507f88f026aacbbecc90c18411df4b1185fd8d9be2470f1962f192bf84a27d0704b78184846040518084815260200180602001838152602001828103825284818151815260200191508051906020019080838360005b838110156122e25780820151818401526020810190506122c7565b50505050905090810190601f16801561230f5780820380516001836020036101000a031916815260200191505b5094505050505060405180910390a1505050565b600061233b600160095461253c90919063ffffffff16565b600981905550814233600954604051602001808481526020018373ffffffffffffffffffffffffffffffffffffffff1673ffffffffffffffffffffffffffffffffffffffff166c01000000000000000000000000028152601401828152602001935050505060405160208183030381529060405280519060200120600190048115156123c357fe5b069050919050565b60008082840190508361ffff168161ffff16101515156123e757fe5b8091505092915050565b60035442018160020160046101000a81548163ffffffff021916908363ffffffff16021790555050565b600073ffffffffffffffffffffffffffffffffffffffff168173ffffffffffffffffffffffffffffffffffffffff161415151561245757600080fd5b8073ffffffffffffffffffffffffffffffffffffffff166000809054906101000a900473ffffffffffffffffffffffffffffffffffffffff1673ffffffffffffffffffffffffffffffffffffffff167f8be0079c531659141344cd1fd0a4f28419497f9722a3daafe3b4186f6b6457e060405160405180910390a3806000806101000a81548173ffffffffffffffffffffffffffffffffffffffff021916908373ffffffffffffffffffffffffffffffffffffffff16021790555050565b6000428260020160049054906101000a900463ffffffff1663ffffffff1611159050919050565b600080828401905083811015151561255057fe5b8091505092915050565b828054600181600116156101000203166002900490600052602060002090601f016020900481019282601f1061259b57803560ff19168380011785556125c9565b828001600101855582156125c9579182015b828111156125c85782358255916020019190600101906125ad565b5b5090506125d6919061265a565b5090565b828054600181600116156101000203166002900490600052602060002090601f016020900481019282601f1061261b57805160ff1916838001178555612649565b82800160010185558215612649579182015b8281111561264857825182559160200191906001019061262d565b5b509050612656919061265a565b5090565b61267c91905b80821115612678576000816000905550600101612660565b5090565b9056fea165627a7a72305820abdd8850c4f3487742b4f27a8e9b08cbd81d132475c6bbff008fc1e63d4a1e6f0029",
  "linkReferences": {},
  "deployedLinkReferences": {}
}